:100000000C94D3010C94F0010C94F0010C94F001C9
:100010000C94781A0C94F0010C94F0010C94F001FB
:100020000C94F0010C94F0010C94B2210C948522F4
:100030000C94BB1C0C94F0010C94F0010C94F00196
:100040000C94F0010C94F0010C94F0010C94F0016C
:100050000C94F0010C94731D0C94F0010C94F001BD
:100060000C94F0010C94F0010C94F0010C94F0014C
:100070000C94F0010C94F0010C94F0010C94F0013C
:100080000C94F0010C94F0010C94F0010C94F0012C
:100090000C94F0010C94F0010C94F0010C94F0011C
:1000A0000C94F0010C94F0010C94F0012E001E0051
:1000B0001F002000210022002B0014001A0008005D
:1000C00015001700390004001600070009000A0097
:1000D000E1001D001B0006001900050000000000E3
:1000E00050004F002A004C00000000002900E200F0
:1000F0002F00E000230024002500260027002D000B
:100100001C0018000C001200130031000B000D0041
:100110000E000F00330034001100100036003700CD
:100120003800350028002C0052005100000000006B
:10013000E4003000E600E7000000000035021E0287
:100140001F02200221022202010001000100010021
:1001500001002F0001004A004B004E004D00260216
:100160000100010001000100010001000000000089
:100170000100460001000100000000000100010034
:1001800001000100230224022502260227024C005E
:1001900030005F006000610001002E0227025C0059
:1001A0005D005E002D003102010059005A005B0025
:1001B0002E002D020100010001006200000000007D
:1001C00001000100010001000000000045003A00AC
:1001D0003B003C003D003E00010001000100010029
:1001E00001002F0001005000520051004F00260274
:1001F00001000100010001000100010000000000F9
:1002000001000100010001000000000001000100E8
:10021000010001003F004000410042004300440053
:1002200030000100530049004700A8002702AC003D
:10023000AE00AB000100A9000100010001000100B7
:100240000100AA00010001002E00010000000000D2
:100250000100010001000100000000002C03440027
:1002600061006300740079006C002D004D00610096
:100270006E00750066006F0072006D00200028009F
:10028000350078003600290000000E03740073006A
:1002900068006F0072007400000004030904090282
:1002A0003B00020100A0FA09040000010301010063
:1002B0000921110100012240000705810308000106
:1002C00009040100010300000009211101000122BD
:1002D0007B000705820320000112010002000000DC
:1002E000084D44363501000102000105010902A153
:1002F0000185020901A10005091901290815002538
:100300000195087501810205010930093115812522
:100310007F95027508810609381581257F9501753D
:10032000088106050C0A38021581257F950175089C
:100330008106C0C005010980A101850319012AB702
:1003400000150126B700950175108100C0050C0944
:1003500001A101850419012AA002150126A0029518
:100360000175108100C005010906A101050719E00A
:1003700029E7150025019508750181029501750889
:1003800081010507190029FF150026FF0095067554
:100390000881000508190129059505750191029547
:1003A0000175039101C011241FBECFEFDAE0DEBF5B
:1003B000CDBF11E0A0E0B1E0E2EFFAE402C00590A9
:1003C0000D92AC39B107D9F722E0ACE9B1E001C038
:1003D0001D92AF3AB207E1F70E943C140C94FF243F
:1003E0000C9400008330B8F46C30A8F4463098F4D4
:1003F000E42FF0E096E0699FE00DF11D112498E4F0
:10040000899FE00DF11D1124EE0FFF1FE455FF4FF2
:1004100085919491089580E090E008950E94F20102
:10042000089581E0089581E008950E9413020895DF
:1004300008950E9418020895A5E0B0E0E2E2F2E01B
:100440000C946B2449835A833091A30189819A814A
:10045000311119C0662399F0222389F00E943E08C9
:10046000182F682F89819A810E941A0869817A81E0
:10047000812F0E94EC0E2596E3E00C9487240E94C5
:100480002C08182FF3CF0E943E0869817A81F1CFA2
:10049000FC01262F408151816281738184810E94F9
:1004A0001C02089581E00895CF93DF93D82FC92FC0
:1004B00060E00E9448026D2F7C2F0E941902DF919C
:1004C000CF9108950E946F1008950E9473100895AF
:1004D00008950E94E6060E9468022FEF84E39CE0E4
:1004E000215080409040E1F700C0000008950E9434
:1004F00069020E94971D08950E9469020E94A81D2A
:1005000008950F931F93CF93DF938C0161E00E94B6
:100510004802EC01B8010E9415028823B1F1B8012C
:10052000CE010E949319882381F1B801CE010E9467
:10053000E216882351F1B801CE010E94F9188823F0
:1005400021F1F8018281882381F0CA35FCE7DF07B9
:1005500039F178F4C130ECE7DE07F9F0C330FCE79D
:10056000DF07C9F0C115DC4771F0C8010E94110214
:100570000DC0CB35ECE7DE07B1F0CC35DC47A9F791
:100580000E94880CF2CF0E94770280E0DF91CF9129
:100590001F910F9108950E949A0C0E947C02F5CF42
:1005A0000E94920CE2CF0E94960CDFCF0E94981C12
:1005B0000E94000308950E9404030E949D1C089558
:1005C00008950E94E002089581E008950895CF9370
:1005D000DF93D82F0E94E402C82F882319F08D2FB3
:1005E0000E94E6028C2FDF91CF9108950895CF935A
:1005F000C82F0E94E1028C2F0E94E702CF9108953C
:1006000080E00E94F70208950E949D1B0E94F7025D
:100610000895CF930E949D1BC82F80919E018C1737
:1006200079F0C0939E010E94271D60939F017093F3
:10063000A0018093A1019093A2018C2F0E94F70248
:10064000CF910895ABE0B0E0E8E2F3E00C946824C9
:10065000142F4F83052F588769877A878B87EA8401
:10066000FB8461110E94D10B1E8285E0FE0137964A
:10067000DE01119601900D928A95E1F7E114F104E3
:1006800061F449815A816B817C818D819E810E94B8
:10069000F70A2B96E6E00C94842410231F3F89F37D
:1006A000CE0101960E9452028111EBCFF2CFFC01E4
:1006B000808191810E9470080895662329F00E942C
:1006C000CD140E948E1508950E941615FACFCF936F
:1006D000C82F8823C9F08238C9F40E949D1B81FD70
:1006E00013C089E30E94860B0E94F20B2FEF37EEB6
:1006F00083E0215030408040E1F700C0000089E3F2
:100700000E948E0B0E94F20BCF9108958338A1F4C2
:100710000E949D1B80FDF8CF83E50E94860B0E94FE
:10072000F20B9FEF21EE34E0915020403040E1F792
:1007300000C0000083E5E4CF8438A1F40E949D1B33
:1007400082FDE2CF87E40E94860B0E94F20B8FEFBE
:1007500091EE24E0815090402040E1F700C000007D
:1007600087E4CECF8CEF8C0F813AB8F48C2F0E94A7
:1007700033188111C9CF6C2F809100019091010134
:100780000E94281C882329F08C2F0E948E0B0E9427
:10079000F20B8C2F0E94860BB5CF80E28C0F883035
:1007A00048F4C77081E001C0880FCA95EAF70E943B
:1007B000B20BA8CF8BE58C0F833038F42C2F24524A
:1007C000330BC9010E94CB1B9FCFE8E5EC0FE93149
:1007D00050F4F0E0EE0FFF1FE65DFE4F8081918147
:1007E0000E94F11B91CF83E38C0F833108F08CCFF3
:1007F00061E08C2F0E945D0387CF882309F456C0E7
:10080000823879F40E949D1B81FF50C089E30E94C9
:10081000860B0E94F20B89E30E948E0B0E94F20B62
:100820000895833859F40E949D1B80FF3FC083E5E3
:100830000E94860B0E94F20B83E5EECF843859F4B8
:100840000E949D1B82FF32C087E40E94860B0E949B
:10085000F20B87E4E1CF9CEF980F913AE8F290E237
:10086000980F983050F4877091E001C0990F8A95E5
:10087000EAF7892F0E94B80BD1CF9BE5980F9330F0
:1008800028F480E090E00E94CB1B089598E5980F33
:10089000993128F480E090E00E94F11B089593E3E1
:1008A000980F933118F460E00E945D0308951F9340
:1008B000CF93DF93182FEB010E946703209739F441
:1008C000812F0E94FD03DF91CF911F9108958FE941
:1008D0009FE00197F1F700C000002197EFCF60E0A3
:1008E00070E0893311F460E570E00E9457040895C8
:1008F000882321F00E94B20B0E94F20B08958823F6
:1009000021F00E94B80B0E94F20B0895A0E0B0E025
:10091000ECE8F4E00C9466246C01D62FC72FFC01A0
:100920001281058102950F700E94A70BE82E882383
:10093000B9F0E12E1123A1F08C2F807F803421F0BB
:1009400080E28D0F8830B8F08091830282FF13C05F
:1009500082E00E94550C0E94A70B91E0E82EE92648
:10096000EC2FE295EF70C03C08F062C0F0E0EF5F62
:10097000FA4D0C945624E12CF3CF0C2F0F70C0319C
:1009800010F00295007F112399F0002359F080E2C6
:100990008D0F883010F0D11107C0802F0E94B20B4C
:1009A0000E94F20B8D2F42C0802F0E94C30BF8CF04
:1009B0008D2F0E94FD030023D9F180E28D0F883036
:1009C00010F0D11104C0802F0E94B80B03C0802FFB
:1009D0000E94C90B0E94F20B2BC0FC2FFF70FF2E50
:1009E000C07FC03219F0F29480EFF822DD2381F04D
:1009F000D13009F45EC0112309F466C0002309F464
:100A00005DC0F601858180FFCDCF8F70858356C094
:100A10008091830282FD2BC0112311F1FF2029F068
:100A20008F2D0E94B20B0E94F20B80E00E946703A0
:100A3000EE2089F00E94A30B80FD0DC0F60112820A
:100A40000E949D0B0E947707C6010E94A7060E9484
:100A50009D0B0E948707CDB7DEB7E8E00C94822497
:100A600080E00E94FD03FF2019F38F2DADCF1123ED
:100A700081F0011106C00E94D40B8F290E947804D6
:100A8000D7CF0130C1F70E94D40B8F290E94DB0B16
:100A9000CFCF011106C00E94E80B8F2D0E947F046A
:100AA000C7CF013029F28F2D0E947F040E94E80BEE
:100AB000BFCF112329F0063008F0BACF8F2DDECF3B
:100AC000053008F0B5CFE9CF002339F3D93349F425
:100AD000FFEF27EE63E0F15020406040E1F700C0F7
:100AE00000008D2F0E94FD03A3CF8C2F8695869545
:100AF0008370882369F0813009F09ACF8D2F9C2F65
:100B00009370111102C080E090E00E94F11B90CF21
:100B10008D2F9C2F9370111102C080E090E00E94F5
:100B2000CB1B86CF612F8D2F0E945D0381CF8C2F31
:100B30008370811139C0111129C04D2F42954695FE
:100B40004770440F440F2D2F2F7030E0042E02C049
:100B5000220F331F0A94E2F780E090E0D4FF09C02F
:100B60008FE090E002C0880F991F4A95E2F78095C8
:100B70009095C695C695C370822B932BC23071F0A9
:100B8000C33079F0C13039F00E9447070E949D1BA5
:100B90000E94F7024DCF0E943E07F8CF0E945007F7
:100BA000F5CF0E943B07F2CF112361F1C0FFEECFDA
:100BB0008D2F829586958770880F880F4D2F4F70E7
:100BC00050E0082E02C0440F551F0A94E2F7D4FFEC
:100BD0001CC02FE030E0F90102C0EE0FFF1F8A9524
:100BE000E2F7CF0180959095C695C695C370842B8A
:100BF000952BC23081F0C33089F0C13049F00E949A
:100C0000B207C4CF823010F2D3CF80E090E0ECCFB7
:100C10000E94A907BBCF0E94BB07B8CF0E945F0705
:100C2000B5CFCF70112339F08C2F0E9477078D2F0D
:100C30000E947804ABCF8D2F0E947F048C2F0E94DE
:100C40008707A4CFD23F31F170F4D03FB9F0D13F44
:100C5000B1F1112309F451C0002309F44BC08D2FC9
:100C60000E94670393CFD33FE1F0D43F21F11111EC
:100C7000F3CF011150C08C2F8F71E1CF112341F0C0
:100C8000053008F083CF8C2F8F710E9499077ECF9B
:100C90000530F7CF8C2F8F711111D1CF0E947707BC
:100CA00075CF112329F08C2F8F710E946B076ECFA7
:100CB0000E9466076BCF8091830282FD06C08C2F55
:100CC0008F71112309F4BBCFE9CF112349F0CF7104
:100CD0008C2F0E94770763E08C2F0E94370C56CF31
:100CE00081E00E94550C023008F450CF82E00E944F
:100CF000550C4CCF8C2F8F71D1CF002309F4BBCF73
:100D0000D93349F4FFEF27EE63E0F1502040604013
:100D1000E1F700C000008D2F0E94FD0337CF0F9335
:100D20001F93CF93DF93EC01688179818A810E94C0
:100D30007D088C010E94C4070E943A07B801CE01C9
:100D40000E948604DF91CF911F910F910895CF9358
:100D5000DF93EC01988189812B813C81232BB1F0B9
:100D600089238F3F99F0CE010E948102811111C029
:100D70000E94A70B882351F08A81882339F0809143
:100D8000830282FF03C082E00E94550CDF91CF9165
:100D90000895CE010E948F06CE010E945402F6CF24
:100DA00080E090E00E94CB1B80E090E00E94F11B6D
:100DB0000E94D10B0E94F20B0E94AB150E948E156F
:100DC00008950E94960B0E94D00608950E94C00BC1
:100DD0000E94E1060895282F92959F70963091F019
:100DE00060F4925F9F70923030F481E0203F79F0A0
:100DF00030F4283E30F080E008959A5FF3CF243F2E
:100E0000D1F7089581E0283EE0F3213FF9CF08951E
:100E1000FC0183819481892B61F0818190818923F8
:100E20008F3F39F0808191810E9470080E94EB060B
:100E3000089580E00895A5E0B0E0E1E2F7E00C94C9
:100E40006C242596E2E00C948824A6E0B0E0EBE266
:100E5000F7E00C946C242696E2E00C948824089524
:100E60000E942F0708950E9430079093CB01809332
:100E7000CA01089508950E94330708952091CA0178
:100E80003091CB01822B932B0E9433070895209140
:100E9000CA013091CB01822393230E943307089526
:100EA0002091CA013091CB01822793270E943307FA
:100EB00008950E942F0708950E94590708950E94DF
:100EC0005C079093C9018093C801089580E090E089
:100ED0000E945F07089521E030E0A90102C0440F9D
:100EE000551F8A95E2F7CA010E945F07089521E025
:100EF00030E002C0220F331F8A95E2F78091C801CB
:100F00009091C901822B932B0E945F07089521E0E5
:100F100030E002C0220F331F8A95E2F7209530950A
:100F20008091C8019091C901822393230E945F0799
:100F3000089521E030E002C0220F331F8A95E2F7C6
:100F40008091C8019091C901822793270E945F0771
:100F500008952091C8013091C901822B932B0E94E2
:100F60005F0708952091C8013091C901822393231E
:100F70000E945F0708952091C8013091C90182271E
:100F800093270E945F07089508959B01677091E081
:100F900001C0990F6A95EAF763E0369527956A953F
:100FA000E1F7220F331F220F331FFA01E20FF31F65
:100FB00040E050E0682F70E08191DF0111979B01C4
:100FC000042E02C0369527950A94E2F721702195E8
:100FD0002827292328272C934F5F5F4F4430510542
:100FE00059F708959C01982F977083E036952795BF
:100FF0008A95E1F7220F331F220F331FFB01E20F07
:10100000F31F40E050E080E0219130E0092E02C063
:10101000369527950A94E2F721703327042E01C0F4
:10102000220F0A94EAF7822B4F5F5F4F443051053D
:1010300059F70895282F862F9C3068F4263058F4ED
:10104000622F70E026E0929F600D711D112444EA2A
:1010500051E00E94C5070895292F9C3068F486301E
:1010600058F490E064EA71E036E0239F800D911D12
:1010700011240E94F207089580E00895A0E0B0E0F6
:10108000E4E4F8E00C9465248C01E090C801F09051
:10109000C9018091CA019091CB01E82AF92ACFE0D9
:1010A000D0E0CC24C394D12CC6010C2E02C0880FF2
:1010B000991F0A94E2F78E219F21892B49F42197E9
:1010C00098F7B12C8B2DCDB7DEB7E9E00C948124D5
:1010D000BC2EB8018C2F0E94F80E019781F3F2CF3D
:1010E000CF93DF93D82FC92F0E943E086D2F7C2FFE
:1010F0000E94F80EDF91CF9108951F93CF93DF9355
:10110000162FD72F9091A301992341F0862F972F67
:101110000E947008DF91CF911F910895882381F07C
:10112000862F972F0E943E08C82F682F812F9D2F52
:101130000E941A08612F7D2F8C2F0E94F80EEACF93
:10114000862F972F0E942C08C82FF4CF0F931F9340
:10115000CF93E091CC01C6E08091CD018E1304C005
:10116000CF911F910F9108950E2F10E0CE9FF001A7
:101170001124E253FE4F4081518162817381848149
:1011800095810E942507F8013196E770E5CF4091DF
:10119000FE015091FF016091000270910102809167
:1011A0000202909103020E94250708951F93CF9396
:1011B000DF9380910302803108F04CC080910002DF
:1011C000882309F447C08091CC012091CD01609122
:1011D000FE013091FF01C0910102D0910202732FF4
:1011E00076232817B9F190E0209709F443C016E060
:1011F0007F3F09F43FC0189FF001199FF00D1124A3
:10120000DF01A253BE4F11964C91119734132CC09D
:101210004C91461329C012964C91129741111EC051
:1012200013964D915C914C1B5D0B483C5105E0F4CD
:10123000809103028F70806180930302ED52FE4F14
:1012400080818F70806180838EEF91E00E94A7067D
:101250000E94A608DF91CF911F9108950196877093
:1012600099272813C8CFF6CF01968770992728139E
:10127000BFCFF0CF01968770B4CF8F929F92AF927D
:10128000BF92DF92EF92FF920F931F93CF93DF9362
:10129000CDB7DEB72B970FB6F894DEBF0FBECDBF2C
:1012A0008C0185E0F801DE01179601900D928A9578
:1012B000E1F7D8011296DC9012971396AD90BC908E
:1012C00014973EEF832E31E0932E2091FE019091F2
:1012D000FF0140910102509102024115510509F4AC
:1012E0005BC1892F82238F3F09F456C1E090000231
:1012F000F501E41BF50BEE2009F462C180910302B5
:10130000E83CF10508F0E6C011963C911197803158
:1013100008F0A1C0FD2C391327C09C91921324C062
:10132000D1106CC08F708061809303020E94C70847
:10133000C4010E94A70680910302D80115968C93E0
:10134000F12C8F2D2B960FB6F894DEBF0FBECDBFBC
:10135000DF91CF911F910F91FF90EF90DF90BF90A1
:10136000AF909F908F9008958F819885AB2809F456
:1013700042C09F3F19F48F3F09F43DC0D1103EC0D9
:10138000A091CC014091CD01EA2F26E0B22EA4130A
:101390001BC0292F28232F3F99F226E0E41334C0E5
:1013A0008F8198850E947008292F22952F70903286
:1013B00008F03EC09F70992311F0882311F2805EDF
:1013C000883008F4BECF38C02A2F30E0BA9ED00152
:1013D0001124A253BE4F11965C911197951307C02B
:1013E0005C91581304C012965C91D512F5C0D901D6
:1013F0001196A770CCCFDD2009F4A2CF8091030213
:101400008160809303029CCF6E2F70E02E9FF001CD
:101410001124E253FE4F3181931306C030818313B0
:1014200003C0328131118CCFFB013196E770B6CF0A
:10143000225F2F70223028F0C8010E94A706FE2CE0
:1014400080CF9F70992309F4BACFF801958190312C
:1014500008F0B5CF76CF391313C09C91921310C00A
:10146000D1100EC015968C93C8010E94A70686E085
:10147000F801AEEFB1E001900D928A95E1F725C039
:10148000C8010E940807882309F482C0DD2009F4FE
:101490007FC080910302803270F02091FE01309174
:1014A000FF013A8329831B82BD82AC828E83CE01E9
:1014B00001960E94A70686E0F801AEEFB1E0019028
:1014C0000D928A95E1F70E94D6080E94C708FF2472
:1014D000F39437CF803198F44F81588569857A85A8
:1014E0008B850E941B078EEF91E00E94A70686E085
:1014F000F40111928A95E9F70E94C70821CF11964D
:101500003C9111979313BCCF9C919213B9CFD110FA
:10151000B7CF15968C93C8010E94A70686E0F40108
:1015200011928A95E9F7D3CFDD2091F1D801119678
:101530008C911197981322C08C9182131FC08091B7
:10154000030280FD12C0803180F015968C931597B0
:10155000807F803F09F488CF15968C911597982F3E
:10156000907F905F8F70892B7DCF86E0F801AEEF82
:10157000B1E001900D928A95E1F7A9CFC8010E94D0
:101580000807811198CF8091030281608093030244
:10159000C8010E94A7069BCFDD20D1F3C8010E949D
:1015A00008078823A9F386E0F801AEEFB1E00190C7
:1015B0000D928A95E1F78EEF91E00E94570383CF59
:1015C000E83CF10508F4B0CF4F81588569857A85EC
:1015D0008B850E941B078BCF8EEF91E00E94A706A0
:1015E000EEEFF1E0DF011D92BA94E9F785CFACE0B0
:1015F000B0E0EDEFFAE00C946B244F8358876987D5
:101600007A878B879C87CE0107960E943D098823A5
:10161000D9F08A859B85892B61F058854F81852F6C
:1016200084238F3F31F069857A858B859C850E9464
:10163000250716E08091CC019091CD01891344C01B
:101640002C96E3E00C94872486E0FE013796DE01B9
:10165000119601900D928A95E1F78F8198852091DE
:10166000CD014091CC016A857B85672B11F38923DD
:101670008F3FF9F230E0C90101968770992750E059
:101680008417950771F40E94E6061092CD0110921E
:10169000CC0186E0EEEFF1E0DF011D928A95E9F7DB
:1016A000C8CF96E0929FD001939FB00D1124A25312
:1016B000BE4FFE01319601900D929A95E1F780930D
:1016C000CD010E94A608B5CF189FC00111248253F6
:1016D0009E4F0E943D09882309F4B2CFE091CC01CE
:1016E0001E9FF0011124E253FE4F4081518162811F
:1016F0007381848195810E9425078091CC0190E0BF
:101700000196877099278093CC0194CF682F8091A0
:101710000001909101010E94621C0895682F809140
:101720000001909101010E94651C089580910001C3
:10173000909101010E94681C089580910C0285958A
:1017400085958595089580910C02877008959091F4
:101750000C02977081E0911101C080E008958091A2
:101760001702089590911702982B909317020895ED
:10177000982F9095809117028923809317020895DE
:1017800010921702089590911602982B90931602CA
:101790000895982F909580911602892380931602C0
:1017A000089510921602089580910D0208950895EB
:1017B0000E94D70B08959091830292FF08C09091E8
:1017C0000D02981721F080930D020E94D80B089506
:1017D00080910D02882329F010920D0280E00E9472
:1017E000D80B0895CF93DF93E0910001F0910101B0
:1017F000809117028083E0910001F09101018081C6
:1018000090911602892B808390910D02992381F08B
:10181000E0910001F09101018081892B808380910A
:101820000001909101010E94171C81110E94E80B98
:10183000C0910001D091010148E050E064E072E005
:10184000CE010E94A724892B59F088E0FE01A4E074
:10185000B2E001900D928A95E1F7CE010E94B11B92
:10186000DF91CF91089508950E94330C08959091CF
:10187000830292FF11C098E0899F90011124622B8E
:1018800060930C020E94770780910C0285958595E4
:1018900085950E94340C08950E9477070895109250
:1018A0000C0280E00E94340C089520910C02809577
:1018B000822380930C02982F9770911113C030E00F
:1018C000482F082E000C550B2417350759F090911E
:1018D000830292FF07C08595859585950E948707AD
:1018E0000E944F0C08959091830292FB222720F9C9
:1018F000281769F080FB92F990938302809182020D
:10190000909183020E94BB0C82E00E94550C0895C6
:101910008091830282FB882780F991E089270E94C9
:10192000730C089581E00E94730C089580E00E947A
:10193000730C08956FEF7FEF80E090E00E94E92440
:10194000089580E090E00E94C5249C0181E0273E3C
:101950003E4F09F080E0089582E090E00E94BD24AF
:10196000089583E090E00E94BD24089584E090E013
:101970000E94C5240895BC0184E090E00E94E924FF
:101980000895AB01BC018FE090E00E94DD24089532
:10199000AB01BC0183E190E00E94DD24089560E08A
:1019A00070E0CB010E94C80C089560E070E0CB01AC
:1019B0000E94C10C0E94CF0C089567EE7EEF80E07C
:1019C00090E00E94E92460E082E090E00E94CB2455
:1019D00060E083E090E00E94CB241092CB01109253
:1019E000CA0160E074E184E090E00E94E92460E0D4
:1019F00086E090E00E94CB246FEF87E090E00E94A9
:101A0000CB2440E050E0BA0188E090E00E94DD2461
:101A100060E08DE090E00E94CB2440E050E0BA010D
:101A200088E190E00E94DD2460E087E190E00E9480
:101A3000CB2440E050E0BA018CE190E00E94DD242C
:101A400060E070E080E290E00E94E92440E050E035
:101A5000BA0188E190E00E94DD240E94D50C08952F
:101A60000E94DD0C0895682F8EE090E00E94CB2448
:101A700008950E94271D60932A0270932B02809381
:101A80002C0290932D02609326027093270280937C
:101A90002802909329020895089508950E944D0DFB
:101AA000089508950E94510D08958DE490E10E94DB
:101AB000931B0E944C0D0E944E0D08950E9425120A
:101AC0000895089508950E94610D0E94620D089581
:101AD0000E9450100E94F60208950E94121D0E945A
:101AE000E40F0E9440120E9480110E94680D0E9423
:101AF000C8160E944A120E94520D0895A5E0B0E057
:101B0000E4E8FDE00C9464240E94A4118AE1C82E4C
:101B100082E0D82E760110E0F70101917F01812F3C
:101B20000E9476101F5F1C3009F442C00817A1F311
:101B300080912E0281FD0E947C100E945E0DA82ED5
:101B400000E0802F0E947610182FF60191916F010E
:101B5000891741F1B82EB926F12CEE24E3948E2D8D
:101B60008B218823B9F0AA20A9F0F9820A8391E099
:101B70008E2D8123811101C090E09B830E941B1D4B
:101B80008160782F9D838C8349815A816B81892F55
:101B90000E942203F394EE0CF6E0FF12E0CFF60170
:101BA000319710830F5F0C3061F60E94390D20C011
:101BB0000813BECF0E941B1D8C01809118029091CA
:101BC000190208171907A1F08FEF89838A831B82F6
:101BD0000E941B1D8160782F9D838C8349815A81CF
:101BE0006B81892F0E94220310931902009318021F
:101BF0000E9425120E94CC150E9409032596EAE056
:101C00000C948024CF93DF930E94FD0EEC0181158C
:101C100022E59207C8F5811540E5940708F0C3C096
:101C2000803E9105F0F48D3C910508F094C0883A0F
:101C3000910578F4853A910508F07FC081309105CF
:101C400021F00497813A910548F4CE01DF91CF91BC
:101C50000895885A9109499708F472C0C0E0D0E00D
:101C6000F4CF8115904468F4C11580E2D80708F0DC
:101C7000A7C0C83ED10548F3CE019A958F3F9E413B
:101C8000E3CFDF70D06AE1CF803842E59407C8F532
:101C9000803652E5950708F067C0C03482E5D80762
:101CA000B0F08C2F86958695877020E2829FC001C8
:101CB0001124C37021E030E0A90102C0440F551F78
:101CC000CA95E2F7EA01C82BD92BDC68BECFC03237
:101CD00052E5D50708F041C08C2F8695869520E205
:101CE000829FC0011124C37021E030E0A90102C02D
:101CF000440F551FCA95E2F7EA01C82BD92BDD68BE
:101D0000A4CF803C52E5950760F48F71C03AD2456C
:101D100008F03FC090E0982F8827EC01C46FD06A8C
:101D200094CF805C9245809708F098CFDC2FCC2729
:101D3000CC27DF71C06FD06A88CFA497D06485CFDD
:101D4000C85AD0E0CC0FDD1FC45ADE4F0990D881AD
:101D5000C02DD4647ACFD06578CFCF71D0E0DC2F9E
:101D6000CC27C16FD06A71CF86958695877020E2A7
:101D7000829FC0011124C37021E030E0A90102C09C
:101D8000440F551FCA95E2F7EA01C82BD92BDA6830
:101D90005CCF0E94A10FC82FD0E0DC2FCC27CC272E
:101DA000DF71D06252CF8F710E94A10F35E0D695BE
:101DB000C7953A95E1F7CF709C2FEC01D06945CFDC
:101DC0008D2F8F710E94A10F90E0982F8827882770
:101DD0009F718C2BEC01E5CF462F672F7C3028F4C8
:101DE000463018F40E940E02089580E090E00895B5
:101DF0000E94EC0E0E94020E0895803E9105D1F1E2
:101E0000C8F48133910509F47FC048F48932910503
:101E100009F46FC08A32910509F47DC008958933B1
:101E20009105E1F082389105C9F08533910509F4F7
:101E30005BC00895843E9105D1F148F4823E91053E
:101E400031F1833E910541F181EE90E00895863EA7
:101E50009105C1F1873E9105E1F10895209182023B
:101E60002370211165C02091830223FF14C089E2F1
:101E700090E008952091820220FD43C030918302BA
:101E800030FF09C024FF4EC080E090E0089520910B
:101E9000820222FDF7CF08952091820222FD45C0E3
:101EA0003091830230FD44C024FFF5CFEDCF209167
:101EB000830221FFF0CF8091820284FDE5CF87EE7F
:101EC00090E008952091820223FFE5CF24FDDCCF2E
:101ED000F6CF2091820223FD2EC03091830231FF84
:101EE000E3CF84EE90E008952091820225FFD3CFC6
:101EF000BECF2091820225FD21C02091830223FFC5
:101F0000CACF89E390E008952091820226FFC3CFD3
:101F10008AE290E008952091820226FFBCCF81E3FF
:101F200090E0089583EE90E0089582EE90E00895A9
:101F300080EE90E0089586EE90E0089585E390E0CD
:101F4000AACF9091820292FF06C0282F28712830D4
:101F5000F9F4877F846093FF06C0282F2871283109
:101F6000F1F4877E84612091830220FF06C0382F20
:101F700038713830D9F4877F816021FF06C0282F5F
:101F800028712831D1F4877E816194FD877E089580
:101F9000282F24712430F9F68B7F8860DCCF282F1E
:101FA0002471243101F78B7E8861DDCF382F3171A8
:101FB000313019F78E7F8860E0CF282F21712131D1
:101FC00021F78E7E8861E1CF10927E0210927F020F
:101FD00010928002109281020895CF92DF92EF92C8
:101FE000FF92CF93DF9300D000D0CDB7DEB76B0167
:101FF0007C010E942512811112C00E94271D698355
:102000007A838B839C83C61AD70AE80AF90AC0929E
:102010007E02D0927F02E0928002F09281020F90C5
:102020000F900F900F90DF91CF91FF90EF90DF9086
:10203000CF900895A4E0B0E0E0E2F0E10C946C24CD
:102040000E942512882371F00E94271D69837A83DC
:102050008B839C8369817A818B819C812496E2E0C9
:102060000C9488240E94271D69837A838B839C8328
:1020700080917E0290917F02A0918002B0918102B6
:1020800029813A814B815C81280F391F4A1F5B1FD0
:1020900029833A834B835C83DDCF80E008950895E4
:1020A0000E94A10C811102C00E94300D0E94AC0C54
:1020B00080932E020E94B60C90938302809382023A
:1020C0000E944F100E94B10C90E00E943B0780914B
:1020D000C8019091C9010E945C07089508950E946B
:1020E0006E10089508950E9472100895E82FF0E090
:1020F000EF56FD4F80810895089580EA8A95F1F7A3
:10210000089500C008950E947D10089508950E94CA
:1021100086100895A6E0B0E0E0E9F0E10C946724B1
:102120000E942512182F60919D02882309F445C052
:102130001A821982FE01339684E0DF011D928A958E
:10214000E9F7862F90E032977F01BF018F569D4FB0
:102150000E945812DE2C0F2D8823B9F08091840242
:1021600090E046E050E0B7018F569D4F0E94A724B3
:1021700021E020932F02892B99F410E00E94650240
:10218000812F2696E7E00C94832480912F028823E8
:10219000A1F386E0D7011D928A95E9F710922F02EC
:1021A000A0918402B0E0AF56BD4F86E0ED2DF02F38
:1021B00001900D928A95E1F7E1CF70E06F567D4F67
:1021C0008091840290E08F569D4F0E94E1120E9400
:1021D0008710D6CFF894E82FE295EF70F0E041A198
:1021E0008F7021E030E0B90102C0660F771F8A9539
:1021F000E2F7CB01962F9095942391A392A1892B7E
:1022000082A3789408950F931F93CF93DF93C4E92B
:10221000D1E089918F3F11F00E94EA1081E0CA3924
:10222000D807B9F7CEE8D1E004E911E089918F3FF2
:1022300011F00E94EA100C171D07C1F7DF91CF9132
:102240001F910F910895A0E0B0E0E9E2F1E10C9454
:102250006624EC01D62E062F10E0C8018C569E4F46
:102260007C01FC0180818F3F09F445C0F894E82F80
:10227000E295EF70F0E091A18F7021E030E001C0B5
:10228000220F8A95EAF7892F822B81A382A12095BC
:10229000282322A378940E948110EEE8F1E091E0D7
:1022A000C12C81918F3F81F0A82FA295AF70A05EC5
:1022B000B0E02C9130E08F7002C0359527958A955B
:1022C000E2F72170892F211180E0C82A990F81E05F
:1022D000E439F80731F7F70180818F3F11F00E9450
:1022E000EA1061E0C11001C060E08D2D0E948310F2
:1022F000C00FD11FC882CDB7DEB7E8E00C948224AE
:10230000809102018091020190E0811101C096E06C
:1023100090939D0286E0891B809384020E940311A2
:102320008CE0E1E9F2E0DF01982F1D929A95E9F740
:10233000E5E8F2E0DF011D928A95E9F786E00E9468
:10234000E5110E9462020895ACE0B0E0EAEAF1E132
:102350000C9469241A821982FE0133968AE0DF0107
:102360001D928A95E9F7F12C8E010F5F1F4F6F2D9B
:10237000C8010E942311F394B6E0FB12F8CF4CE0A1
:1023800050E0B80185E892E00E94A72421E0892B63
:1023900099F420E060919D0270E06F567D4F46E019
:1023A00085E892E00E94E611182F0E948A10812B86
:1023B0002C96E5E00C9485248CE0F801A5E8B2E0C9
:1023C00001900D928A95E1F7E5CF0895A0E0B0E085
:1023D000ECEEF1E10C946724D82EE92EF62E072FAF
:1023E000C42F222349F081E0809332020E941B1DFA
:1023F000909331028093300210913202111107C084
:1024000010E0812FCDB7DEB7E7E00C9483248091F4
:102410003002909131020E94441D059788F3D0E06C
:10242000AE016D2D7E2D8F2D902F0E94A724892B1C
:1024300051F0AE016D2D7E2D8F2D902F0E94B42472
:1024400010923202DECF10E0FBCF80913502811175
:1024500007C00E943524882351F081E08093350223
:1024600081E090913502913009F080E0089582E09A
:10247000809335020E943024F3CF0E9425120895E4
:102480000E943D12809302010E94251281110E9438
:102490008E1208950E942512811102C00E9491128D
:1024A000089581E0909136029A3008F080E0089516
:1024B0000F931F93CF93DF93EC01162F072F80917B
:1024C00036028A3090F4612F702FCE010E94DE1206
:1024D000811121C0809136028F3FB1F40E941B1DF3
:1024E000909334028093330209C08091330290911B
:1024F00034020E94441D843F914028F780E0DF9120
:10250000CF911F910F9108958F5F809336028A308B
:1025100028F781E0F4CF10923602FBCF0E94301AE8
:1025200008950E94331A0895A0E0B0E0EAE9F2E1CC
:102530000C946624FA0169017801C82F880FDD0B1D
:102540003097B1F0DE0193E0AA0FBB1F9A95E1F737
:10255000AD5FBE4F11968D919C911297895C9D4FF6
:102560004C9150E0E417F50708F4AF010E94B42441
:10257000CE010E941E1B182F8823D1F0E114F10414
:10258000B9F083E0CC0FDD1F8A95E1F7FE01ED5F26
:10259000FE4F438150E0E416F50608F4A701CD5F35
:1025A000DE4F6C817D81695C7D4FC6010E94B42441
:1025B000812FCDB7DEB7E8E00C9482240E94DF13B0
:1025C00008950E94F8130895A8E0B0E0EAEEF2E161
:1025D0000C946A248091500290915102A091520271
:1025E000B0915302BC01CD010E94531D11E064362D
:1025F00071058105910520F10E941A10DC01CB01C3
:102600000296A11DB11D89839A83AB83BC8300E030
:1026100010E020E030E044E050E0BE016F5F7F4F0B
:1026200082E00E949412182F882351F00E94271DE7
:102630006093500270935102809352029093530220
:10264000812F2896E4E00C948624ABE0B0E0EBE226
:10265000F3E10C9464247B01A0909A01B0909B015B
:1026600001E010E09E01295F3F4F40E050E060E054
:1026700070E080E00E949412182F882309F44DC066
:1026800065018FEFC81AD80A80914C0290914D02D3
:10269000A0914E02B0914F02BC01CD010E94531D8A
:1026A000688779878A879B876436710581059105DC
:1026B00060F106E010E09E012F5F3F4F40E050E0E8
:1026C00060E070E081E00E949412182F66E070E0F4
:1026D000C6010E94C9169F8198132AC0112341F197
:1026E0000E94271D60934C0270934D0280934E020E
:1026F00090934F0286E0FE013196A6E4B2E001908D
:102700000D928A95E1F781E014C066E070E0C601A1
:102710000E94C9169F818913CCCF86E0F5013196BE
:10272000DE01119601900D928A95E1F71111E2CF29
:1027300080E096E0E6E4F2E0D70101900D929A95F0
:10274000E1F72B96EAE00C948024A0E0B0E0EBEAFD
:10275000F3E10C946424F82EE92EB62EA72E8A01FC
:102760000E945112CC24C394D12C882319F08AE002
:10277000C82ED12CC1E0D0E06B2D7A2D8F2D9E2D4F
:10278000F8010995811116C02196CC16DD0694F04A
:10279000CC9FC001CD9F900D900D112420E030E022
:1027A00045E34A95F1F700002F5F3F4F281739079F
:1027B000B9F7E2CFCDB7DEB7EAE00C9480240F93EF
:1027C0001F93CF93DF93D82FC92F8B0145E253E19D
:1027D0000E94A513882339F044EE52E1B8018D2FF1
:1027E0009C2F0E94A513DF91CF911F910F91089507
:1027F0000F931F93CF93DF93FB01C0919A01D09168
:102800009B01CE01019626E0DC0101900D922A95F4
:10281000E1F766E070E00E94C91688836F817885D1
:1028200089859A85009142021091430220914402C9
:1028300030914502601771078207930751F060934A
:1028400042027093430280934402909345020E9497
:10285000ED0FDF91CF911F910F9108950E940F1FEF
:102860000E946D0D0E941C1F08950E94211F0E944E
:102870007E0D0E943B1F08950E94B41C0E94F51E0D
:102880000E94550D0E942E140E9435140E94630D63
:10289000FBCF80915C0280FF0DC060911F0170E052
:1028A000660F771F60387105C0F561157105B9F1C4
:1028B000862F089581FF07C060911F0184E0689F03
:1028C000B0011124EFCF82FF04C060911F0188E0A6
:1028D000F6CF80915B028823E9F090911E01609110
:1028E0001F0170E0891730F093E0660F771F9A950B
:1028F000E1F7D8CF869F9001879F300D112483E0A8
:10290000220F331F8A95E1F7692F70E0C9010E94F9
:102910004224C8CF68E070E0CBCF8FE7089581E014
:10292000089580915C0280FF0CC060911C0170E0F2
:1029300075956795759567956115710561F1862F98
:10294000089581FF06C060911C0170E07595679540
:10295000F3CF60911C0170E082FD15C020915A02F6
:102960002223B1F090911B0160911C0170E02917A6
:1029700050F4269FA001279F500D1124692F70E06D
:10298000CA010E94422460387105B0F28FE70895B1
:1029900061E070E0D4CF81E00895E3E3E80FE33134
:1029A000E0F5F0E0E35FFA4D0C9456240E944914E0
:1029B00081958093600208950E944914FACF0E9485
:1029C0004914819580935F0208950E944914FACFBB
:1029D0000E9491148093610208950E949114819540
:1029E000F9CF0E94911481958093620208950E940C
:1029F0009114FACF815D990B21E030E001C0220FE4
:102A00008A95EAF780915E02822B80935E02089598
:102A100080915C02816080935C02089580915C02E9
:102A20008260F9CF80915C028460F5CF40915F02B3
:102A30008D3C59F48091600287FF0DC010926002B6
:102A4000442359F410925B0208C08E3C81F48091BB
:102A5000600218169CF3442381F0809161029091EA
:102A60006202892B811159C010925A0208958F3C3D
:102A700041F447FFF0CF10925F02809160028823FB
:102A8000E0CF803D19F41416B4F3E5CF90916102C4
:102A9000893D29F41916FCF610926102DCCF8A3DBB
:102AA00019F497FFD8CFF8CF909162028B3D29F4AB
:102AB00097FFD1CF10926202CECF8C3D19F4191638
:102AC000CCF3C9CF9FE2980F983090F4815D990BB9
:102AD00021E030E0B90102C0660F771F8A95E2F766
:102AE000CB01809590915E02892380935E02B3CFE3
:102AF0008D3D31F480915C028E7F80935C02ABCF80
:102B00008E3D21F480915C028D7FF7CF8F3D09F0DF
:102B1000A2CF80915C028B7FF0CF08950E941B1D95
:102B200020915F0230916002232B222321F08093B9
:102B30005802909359022091610230916202232B36
:102B4000222321F080935602909357028DE592E064
:102B50000E94BC1B089586E0EDE5F2E0DF011D92C6
:102B60008A95E9F710925B0210925A0210925C0269
:102B70000895FC01828181110DC0838181110AC0F9
:102B80008481811107C081E09581911101C080E0AD
:102B90008170089581E0FCCFA6E0B0E0E2EDF5E1C0
:102BA0000C94692486E0EDE5F2E09E012F5F3F4F33
:102BB000D90101900D928A95E1F710925F0210926F
:102BC000600210926102109262028B819C81892BBB
:102BD0008901882391F080915802909159020E94B6
:102BE000441D9C0180915B028823C9F14091200122
:102BF00050E04217530708F43FC08D819E81892B16
:102C0000882399F080915602909157020E94441DAA
:102C10009C0180915A02882309F46DC040911D01E6
:102C200050E04217530708F474C0B8018DE592E0F4
:102C30000E94701C811105C08DE592E00E94B915BB
:102C400081110E948E1586E0F801ADE5B2E0019099
:102C50000D928A95E1F72696E5E00C948524409143
:102C600055029AE0499FA00111244217530728F604
:102C70008F5F80935B0202C08F3FD1F7FB80FF2004
:102C800059F00E94491491E01F140CF09FEF899FA6
:102C9000802D112480935F02FC80FF2059F00E9458
:102CA000491491E01F140CF09FEF899F802D11248F
:102CB0008093600230915F02332309F49ECF20910C
:102CC0006002222309F499CF45EB3403C00111249B
:102CD000892F911101C081E080935F0245EB2403AD
:102CE00090011124332319F03093600286CF81E0E4
:102CF0008093600282CF409154029AE0499FA001E4
:102D000011244217530708F090CF8F5F80935A0227
:102D100002C08F3FD1F7FD80FF2059F00E9491142F
:102D200091E01F140CF09FEF899F802D1124809358
:102D30006102FE80FF2059F00E94911491E01F145F
:102D40000CF09FEF899F802D1124809362023091B7
:102D50006102332309F469CF20916202222309F42E
:102D600064CF45EB3403C0011124892F911101C0B8
:102D700081E08093610245EB240390011124332309
:102D800019F03093620251CF81E0809362024DCFFF
:102D90000895FC01680F791F8FEF91E3E617F7079D
:102DA00009F408952191822728E030E087FF08C0C8
:102DB000880F89272150310921153105B9F7EECF48
:102DC000880FF8CFCF93DF93EC01FB01828188233A
:102DD00009F4D2C09E0130572332310508F0B2C049
:102DE0000E94B60C9093830280938202FE01E15010
:102DF000F047E232F10520F4E05EFA4D0C945624DF
:102E00008091820281608093820293C080918302CC
:102E10008860809383028DC0809182028260F3CFAC
:102E2000809182028460EFCF809182028860EBCF34
:102E3000809183028160EDCF809183028260E9CF2F
:102E4000809182028061DFCF809182028062DBCF3D
:102E5000809182028064D7CF0E94E6068091820230
:102E60008068D1CF809182028C60CDCF8091830227
:102E70008360CFCF809182028E7FC5CF8091830205
:102E8000877FC7CF809182028D7FBDCF80918202E4
:102E90008B7FB9CF80918202877FB5CF80918302EB
:102EA0008E7FB7CF809183028D7FB3CF80918202D6
:102EB0008F7EA9CF809182028F7DA5CF80918202E3
:102EC0008F7BA1CF0E94E606809182028F779BCFF5
:102ED00080918202837F97CF809183028C7F99CFEC
:102EE0008091820282FB992790F921E0922790FB42
:102EF00082F990FB83F987CF80918302982F909578
:102F000091708E7F892B90FB81F983CF9091820203
:102F1000892F8F7B96FF806476CF0E94E606909182
:102F20008202892F97FB87F980586DCF81E00E943C
:102F3000330D80918202909183020E94BB0C0E940B
:102F4000E60680E0DF91CF91089580E0F0CF909188
:102F50008202892F8F7E94FF806155CF90918202EB
:102F6000892F8E7F90FF81604ECF90918302892FB1
:102F7000877F93FF88604DCF81E0E4CF8B3258F498
:102F8000853090F0EBEFE80FE63270F4F0E0EE5BA6
:102F9000FA4D0C945624833448F48A3308F051C017
:102FA000853331F0883369F080E008958334E1F7A8
:102FB00081E090E00E943B070E94E60602C00E946A
:102FC000300D81E0089580912E02807F80932E0243
:102FD00081E080936602F5CF0E947702F2CF909154
:102FE0002E02892F8E7F90FF816080932E0280FDBC
:102FF000E8CF817F80932E02E4CF90912E02892F1B
:103000008D7F91FF826080932E0281FFDACF8091C5
:103010002E028160EFCF90912E02892F8B7F92FF3D
:10302000846080932E0282FDF2CFCBCF90912E024E
:10303000892F877F93FF886080932E0283FDE7CFDF
:10304000C0CF895321E030E0A90102C0440F551FD1
:103050008A95E2F7CA01AECF8D51F4CF80E0089592
:103060000E942E180895CF93C82F80916602813058
:10307000A1F08230A9F18111B8C00E94AF0B823259
:1030800009F0B5C08C2F0E942E18811111C08C2F11
:103090000E94BE178170CF9108950E94AF0B8232BB
:1030A00089F38C2F0E943018882329F081E0F2CF19
:1030B00081E090E0EFCFC43161F030F4CB30B1F378
:1030C000C03151F080E0E6CFC93219F0C83371F356
:1030D000F9CF10926602F6CF82E080936602E6CFC7
:1030E000CF3409F46FC068F4C83248F4CE3150F5DB
:1030F000C73009F44BC0C431D1F081E0CCCFC93224
:10310000FBCFC13509F453C091E0C23509F45BC06F
:10311000C03599F7E0916302F0916402309769F34A
:1031200080818A50990B97FF5EC01082E6CF809114
:103130006502882311F310926502109264021092C6
:103140006302DBCFCD51C0936502C430C9F078F47F
:1031500080E291E0C23031F08FE191E0C33011F0B4
:1031600085E592E09093640280936302C6CFC530F8
:1031700051F08BE191E0C630A9F310926502BDCF0A
:103180008EE191E0EFCF8CE191E0ECCF109255020F
:1031900084E180932001C0931F018CE380931E0182
:1031A00088E080931C0188E280931B01A6CFE09108
:1031B0006302F0916402309709F49FCF80818150BF
:1031C000990BB1CF9AE0E0916302F09164023097DD
:1031D00009F493CF8081890F9927991F8F3F91051B
:1031E00011F00CF08FEF808388CF1092660280E0A0
:1031F00052CFCF93DF93EB0186319C4719F50E94A4
:10320000AF0B9A819923A1F08A7A91E0811101C0D4
:1032100090E090936702882349F085E30E94860B33
:103220000E94F20B80E0DF91CF91089589E2F6CF02
:1032300080916702882321F085E30E948E0BF0CFF6
:1032400089E2FBCF81E0EFCF0F931F93CF93DF9302
:10325000C42FD22FFC0182818823C9F040936A02D7
:103260000E941B1D909369028093680280E28C0F7C
:10327000883040F4C77081E001C0880FCA95EAF732
:103280000E947804DF91CF911F910F9108951091C2
:103290006A0214133CC080916802909169020E94F6
:1032A000441D883C910598F5C0E2CD0F1D1741F1F2
:1032B00080E2810F883040F4177081E001C0880FF0
:1032C0001A95EAF70E947F04C83020F0802F0E94F0
:1032D0006F04D8CF91E08D2F877001C0990F8A9528
:1032E000EAF7892F0E947804802F0E946F04D7701C
:1032F00081E001C0880FDA95EAF70E947F04C2CF0F
:10330000802F0E946F04C83008F0BCCFF0CF80E25D
:103310008C0F883008F0B6CFC77081E001C0880FED
:10332000CA95EAF7EACF0F93FC01CB01E851FC47BD
:10333000E730F10590F5E859FA4D0C94562406E271
:1033400021EE41EE6AE17CE70E94241980E00F91B2
:10335000089507E225EE45EE6BE17CE7F5CF06E246
:1033600021EE40EE68E17CE7EFCF07E225EE44EE88
:1033700069E17CE7E9CF06E221EE42EE6CE17CE711
:10338000E3CF07E225EE46EE6DE17CE7DDCF08E214
:1033900021E045EE6EE17CE7D7CFFB018281811110
:1033A00010926A0281E0D3CF8EE14B9B03C0815023
:1033B0008111FBCF4B9BFECF08955B9880E28A95ED
:1033C000F1F75B9A0895FC013BE03A95F1F798E03C
:1033D00020E080E031E040E14A95F1F7880F4B9B17
:1033E00002C08160232742E04A95F1F7000040E1E6
:1033F0004A95F1F791509111EECF90E19A95F1F73E
:1034000099B132E03A95F1F7000040E14A95F1F7C1
:1034100093FB992790F992272081920F908308952A
:10342000A1E0B0E0E6E1FAE10C94682419828C0195
:103430007C01E60EF11C0E151F0541F481E0998117
:10344000911180E02196E6E00C9484240E94D41926
:10345000CE0101960E94E319F80181938F01EBCF11
:10346000539A5B9A089553985B9AEB9AE9E6F0E0D9
:1034700080818F73808308956150770B91E001C044
:10348000990F6A95EAF7692F90E021E0611108C071
:10349000992399F05B9A80E28A95F1F75B980895F9
:1034A000362F3823332339F05B9A922730E23A954E
:1034B000F1F76695EBCF5B98F9CF5B98ECCFFF9275
:1034C0000F931F93CF93DF93EC018C01060F111D17
:1034D000C017D10729F4CDB7DEB7E5E00C948524F9
:1034E000F9900E94DD1968E08F2D0E943C1AF0CF00
:1034F0001F920F920FB60F9211240F931F932F93C9
:103500003F934F935F936F937F938F939F93AF936B
:10351000BF93EF93FF93CF93DF930F92CDB7DEB7B7
:1035200019820E94D419CE0101960E94E319082F36
:10353000069506950695982F92959570202F2570E3
:10354000920F292F237096959695920F9827977032
:103550008981892B81115CC0043008F059C080E159
:103560008A95F1F75B9A539A82E08A95F1F700C049
:103570005B9888E0089F80011124D801AD5FBE4FA1
:103580001696ED91FC9117973097A9F060919A01EA
:1035900070919B0114962D913C911597260F371F22
:1035A00011968D919C911297680F791F13964C91EB
:1035B00013978C910995F801ED5FFE4F63816623A7
:1035C00051F020919A0130919B0184819581820F65
:1035D000931F0E945F1A0E94DD1980E18A95F1F71E
:1035E0005B9853985B9A80E18A95F1F7F801ED5F5B
:1035F000FE4F6081662351F020919A0130919B012A
:1036000081819281820F931F0E94101A0E94D41907
:103610000F90DF91CF91FF91EF91BF91AF919F916B
:103620008F917F916F915F914F913F912F911F915A
:103630000F910F900FBE0F901F9018950F931F932F
:10364000CF93DF938C0104970CF065C0F894539AE4
:103650005B9885E08A95F1F70000C02FC695C5708C
:10366000802F8570C80F8C2F8370C695C69593E008
:10367000000F111F9A95E1F7C80FC8018C2BEC01C0
:103680000E94DD1900C068E08C2F0E943C1A90E176
:103690009A95F1F753985B9A4B9B35C087E090E081
:1036A0004B9933C0F801ED5FFE4F6381662361F0F3
:1036B00020919A0130919B0184819581820F931F03
:1036C0000E94101A882321F10E94D41980E28A9561
:1036D000F1F75B98539A90E19A95F1F7F801ED5F55
:1036E000FE4F6081662351F020919A0130919B0139
:1036F00081819281820F931F0E945F1A0E94DD19BF
:10370000789481E009C000C0C7CF0197009749F4C1
:10371000539A5B9A789480E0DF91CF911F910F913B
:10372000089500C0BDCF90939D0180939C010895A2
:10373000909371028093700208950E942512811166
:1037400003C080916B020895E0917002F0917102C4
:10375000309729F00190F081E02D0995089580E0DF
:103760000895E0917002F0917102309721F002808B
:10377000F381E02D09950895DC01E0917002F0914C
:103780007102309739F082E08C930480F581E02D4E
:10379000CD0109950895A3E0B0E0E1EDFBE10C94C3
:1037A0006C249C0180916E0290916F0282179307A6
:1037B000A1F030936F0220936E02E0917002F091BD
:1037C0007102309751F083E089833B832A8306801E
:1037D000F781E02DCE01019609952396E2E00C9445
:1037E0008824A3E0B0E0E7EFFBE10C946C249C019B
:1037F00080916C0290916D0282179307A1F0309333
:103800006D0220936C02E0917002F091710230978A
:1038100051F084E089833B832A830680F781E02D81
:10382000CE01019609952396E2E00C9488249C0130
:10383000AC014E5F5F4F285F3F4F80E0FA019081FF
:103840004F5F5F4F91118F5F24173507B9F70895C8
:103850009C01662351F0FC013296285F3F4F819115
:10386000861729F0E217F307D1F780E0089581E089
:1038700008959C01FC0132968FEF90E0419146172C
:1038800051F08F3F19F4411101C0892F9F5F96308D
:10389000A9F78F3F09F40895280F311D87FD3A9548
:1038A000F901628308959C01FC013296285F3F4F25
:1038B0008191861303C0DF0111971C92E217F30771
:1038C000B9F708950E94391C08950E94531C089569
:1038D000FC01329686E0DF011D928A95E9F7089592
:1038E00046E050E00E94A7249C0181E0232B09F4CC
:1038F00080E0089508950E947A1C08958F5F809358
:1039000072020E947B1C089583E0809372020E94E1
:103910007B1C08950E947E1C089581E080937202B2
:103920000E947B1C08950E948D1C0895089508959F
:103930000E94971C0895089508950E94961C08956A
:10394000CF930E949B1C0E94A4110E949C1CC0E06B
:103950008C2F0E947610811105C0CF5FCC30C1F74B
:10396000CF91089581E0FCCF85B7806885BF85B78A
:10397000806885BF08951F921FB61F9211248F93F0
:103980009F93AF93BF9380917302811113C0809175
:103990009E0290919F02A091A002B091A102419637
:1039A000A11DB11D80939E0290939F02A093A0023F
:1039B000B093A102BF91AF919F918F911F901FBEB5
:1039C0001F9018958091A602843031F10E94D60292
:1039D0001092730288E190E020E40FB6F894A89565
:1039E000809360000FBE2093600083B7817F846066
:1039F00083BF83B7816083BF7894889583B78E7FB8
:103A000083BF0FB6F894A895809160008861809379
:103A10006000109260000FBE08950E94E6060E94AA
:103A2000DB02089582E084BD93E095BD9AEF97BDD7
:103A300080936E0008952FB7F89480919E02909124
:103A40009F02A091A002B091A1022FBF0895A4E00F
:103A5000B0E0EDE2FDE10C946C248FB7F894209176
:103A60009E0230919F024091A0025091A1022983B1
:103A70003A834B835C838FBF69817A818B819C8180
:103A80002496E2E00C9488249C014FB7F89480912E
:103A90009E0290919F02A091A002B091A1024FBFFF
:103AA000821B930B0895A4E0B0E0E9E5FDE10C94DE
:103AB0006A24462F572FBC012FB7F89480919E029D
:103AC00090919F02A091A002B091A1022FBF8C0102
:103AD0009D01041B150B260B370BC901B801249659
:103AE000E4E00C94862478941F921FB61F92112450
:103AF0008F939F93AF93BF9380919E0290919F026B
:103B0000A091A002B091A1020196A11DB11D8093C8
:103B10009E0290939F02A093A002B093A102BF9136
:103B2000AF919F918F911F901FBE1F90189587E7AF
:103B300097E7909301088093000888E19AE00FB618
:103B4000F894A895809360000FBE90936000FFCF1B
:103B500088E19AE00FB6F894A895809360000FBEB4
:103B600090936000FFCF80917C020895282FCB01B5
:103B7000BA013091A6023430E1F42F702093E900AD
:103B80002FEF3091E80035FD07C035ED3A95F1F79C
:103B9000000021502111F5CF2091E80025FF09C038
:103BA00040E050E00E94AE1F8091E8008E77809345
:103BB000E8000895BC0143E050E082E00E94B61D99
:103BC0000895BC0146E050E082E00E94B61D0895D1
:103BD000CF93DF93D82FC92F48E050E0682F792F7B
:103BE00081E00E94B61D88E0ED2FFC2FA4E7B2E033
:103BF00001900D928A95E1F7DF91CF910895809120
:103C0000A502811109C00E9436210E949321809152
:103C1000E20084608093E20008951092A502089566
:103C20000E948D1C08956091A20281E0611101C083
:103C300080E00E94841C08959091A60281E0943057
:103C400009F080E06091A2020E948A1C089542E07F
:103C500061EC81E00E94B22042E261EC82E00E94CD
:103C6000B2209091A60281E0943009F080E060914A
:103C7000A2020E947E1C08958091A802893089F1D9
:103C800048F4823009F4A0C0833009F45AC081306E
:103C900041F008958A3009F487C08B3009F46CC074
:103CA00008958091A702813A09F04AC08091E80006
:103CB000877F8093E8008091AB029091AC02892BC2
:103CC00061F060E080E090E070E00E94FD1F809174
:103CD000E8008B778093E800089568E084E792E03D
:103CE000F3CF8091A702813259F58091AB02909178
:103CF000AC02029728F58091E800877F8093E80066
:103D00008091E80082FF18C09091F3008091F2004A
:103D1000029731F48091F100813011F0863021F466
:103D20008091F10080937C028091E8008B778093F2
:103D3000E8000E94E62004C08091A6028111E0CF35
:103D400008958091A702813AD9F78091AB029091B2
:103D5000AC02892BA9F78091E800877F8093E80067
:103D60008091E80080FFFCCF809129018093F100D1
:103D70008091E8008E77DBCF8091A702813201F736
:103D80008091AB029091AC02892BD1F68091E80032
:103D9000877F8093E8000E94E6208091A9028093AB
:103DA00029010E94E60608958091A702813241F61A
:103DB0008091E800877F8093E8000E94E620809150
:103DC000AA0280937D0208958091A702813A09F0AA
:103DD000B7CF8091E800877F8093E8008091E8006A
:103DE00080FFFCCF80917D02C1CF84B7877F84BFE5
:103DF0000FB6F894A8958091600088618093600068
:103E0000109260000FBE80E890E00FB6F8948093A7
:103E10006100909361000FBE0E94931C08950E9460
:103E200036210E949321E2EEF0E08081846080835D
:103E300078940E941624089581E291E00E94981BD4
:103E400008958091A602853031F48091A6028530D4
:103E500019F00E940D1D08950E94E21C8091A40299
:103E6000882399F30E94A01C882379F30E94981F4D
:103E70000E94E606EACF08950E943F1F0895FC01C4
:103E8000CB01DA012F2F332723303105E1F058F42D
:103E900021303105C9F122303105D9F180E090E0BF
:103EA00020E030E01EC02132310521F122323105FF
:103EB000A9F7892BC1F16130710581F78BE790E09B
:103EC0002BEE32E00EC0CF019927E13069F082304D
:103ED000910569F0EAE9F2E0892B01F7849190E01D
:103EE0009F012D933C930895EAE8F2E0F7CFECE5CB
:103EF000F2E0F4CF892B91F06130710579F689E019
:103F000090E029EC32E0EDCF82E190E029ED32E063
:103F1000E8CF8BE390E02EE932E0E3CF89E090E058
:103F200020EB32E0DECF80E490E026E633E0D9CF2C
:103F300080E189BD82E189BD09B400FEFDCF809199
:103F4000D8008F7D8093D8008091E00082608093BC
:103F5000E0008091E00081FDFCCF0895AF92BF9218
:103F6000CF92DF92FF920F931F93CF93DF936C0159
:103F7000EB018A010E940521F82E811123C0011551
:103F8000110539F0F80180819181C81BD90BC80E49
:103F9000D91EA12CB12C2097A9F08091E80085FDB5
:103FA00022C08091E8008E778093E800011511050A
:103FB000A1F0F801808191818A0D9B1D91838083FE
:103FC00085E0F82E8F2DDF91CF911F910F91FF90FB
:103FD000DF90CF90BF90AF9008950E940521882375
:103FE000E1F2F82EEFCFF60181916F018093F1009D
:103FF0002197FFEFAF1ABF0ACECFFC019B01809142
:10400000AD029091AE028617970718F0672B61F00A
:10401000C90140E0009771F441110CC08091E800A3
:1040200082FF35C080E008958091E8008E7780930C
:10403000E800EECF2091A6022223A9F12530A9F1B4
:104040002091E80023FD2DC02091E80022FDE6CF5D
:104050002091E80020FFDECF3091F3002091F200A4
:10406000009719F02830310558F041E0283031052B
:1040700009F040E02091E8002E772093E800CACFB5
:1040800041914093F10001972F5F3F4FE9CF80911D
:10409000A602882341F0853041F08091E80083FF3B
:1040A000BDCF81E0089582E0089583E00895FC018A
:1040B0009B018091AD029091AE028617970718F090
:1040C000672B61F0C90140E0009771F441110CC009
:1040D0008091E80082FF36C080E008958091E8007A
:1040E0008E778093E800EECF2091A6022223B1F1D3
:1040F0002530B1F12091E80023FD2EC02091E80089
:1041000022FDE6CF2091E80020FFDECF3091F300C2
:104110002091F200009719F02830310558F041E065
:104120002830310509F040E02091E8002E772093F7
:10413000E800CACF44914093F100319601972F5F78
:104140003F4FE8CF8091A602882341F0853041F0AF
:104150008091E80083FFBCCF81E0089582E008955C
:1041600083E00895982F973028F08F708093E900AE
:1041700081E008959093E900242F762F50E098175E
:1041800031F07091EC002091ED005091F00021FD94
:1041900002C09F5FE8CF3091EB003E7F3093EB0091
:1041A0003091ED003D7F3093ED003091EB003160B8
:1041B0003093EB007093EC002093ED005093F000EF
:1041C0002091EE0027FDE5CF80E008958091A702C1
:1041D00087FF13C08091E80082FF06C08091E8004D
:1041E0008B778093E80004C08091A6028111F2CF02
:1041F00008958091A6028823D9F38091E80080FF7A
:10420000F8CF8091E8008E77ECCF2091E4003091D8
:10421000E50095E6A9018091EC008170882331F0DA
:104220008091E80080FF06C080E008952091E800BA
:1042300022FD1BC08091A602882391F0853091F069
:104240008091EB0085FD10C02091E4003091E500E5
:104250004217530701F391509111DCCF84E0089588
:1042600082E0089583E0089581E008950E94A521E9
:104270000E94AD21E0EEF0E0808181608083E8ED76
:10428000F0E080818F77808319BCA7EDB0E08C913E
:104290008E7F8C9380818F7E80831092A5020895FB
:1042A0000F931F93CF93DF930E94A5210E94AD210E
:1042B000C8EDD0E088818F77888388818068888383
:1042C00088818F7D888319BC1092A6021092A20269
:1042D0001092A4021092A30200EE10E0F801808177
:1042E0008B7F808388818160888342E060E080E00A
:1042F0000E94B220E1EEF0E080818E7F8083E2EECA
:10430000F0E0808181608083808188608083F80113
:1043100080818E7F8083888180618883DF91CF91C7
:104320001F910F910895E8EDF0E080818F7E8083EA
:10433000E7EDF0E080818160808384E082BF81E0EE
:104340008093A5020E9450210895E8EDF0E080815D
:104350008E7F80831092E20008951092DA0010920E
:10436000E10008951F920F920FB60F9211242F9320
:104370003F934F935F936F937F938F939F93AF93ED
:10438000BF93EF93FF938091E10082FF0BC0809178
:10439000E20082FF07C08091E1008B7F8093E10003
:1043A0000E9415248091DA0080FF19C08091D80006
:1043B00080FF15C08091DA008E7F8093DA008091B3
:1043C000D90080FF94C080E189BD82E189BD09B434
:1043D00000FEFDCF81E08093A6020E94FF1D809128
:1043E000E10080FF19C08091E20080FF15C080913C
:1043F000E2008E7F8093E2008091E20080618093F2
:10440000E2008091D80080628093D80019BC85E0DA
:104410008093A6020E94131E8091E10084FF29C0B0
:104420008091E20084FF25C080E189BD82E189BDE1
:1044300009B400FEFDCF8091D8008F7D8093D80015
:104440008091E1008F7E8093E1008091E2008F7E79
:104450008093E2008091E20081608093E20080918D
:10446000A202882309F449C084E08093A6020E9436
:104470001C1E8091E10083FF29C08091E20083FF30
:1044800025C08091E100877F8093E10082E08093E6
:10449000A6021092A2028091E1008E7F8093E1003B
:1044A0008091E2008E7F8093E2008091E200806143
:1044B0008093E20042E060E080E00E94B2208091C0
:1044C000F00088608093F0000E94101EFF91EF9131
:1044D000BF91AF919F918F917F916F915F914F911C
:1044E0003F912F910F900FBE0F901F90189519BC00
:1044F0001092A6020E940D1E72CF8091E30087FFEA
:1045000002C083E0B2CF81E0B0CF1F920F920FB60E
:104510000F921124FF920F931F932F933F934F936A
:104520005F936F937F938F939F93AF93BF93CF933B
:10453000DF93EF93FF9309EE10E0F8018081C091C3
:10454000EC00C795CC27C7958F70FC2EF82A1082F7
:10455000C0EFD0E08881877F888378940E94CE2244
:10456000F8011082888188608883CF2DCF70C08346
:10457000FF91EF91DF91CF91BF91AF919F918F917B
:104580007F916F915F914F913F912F911F910F916B
:10459000FF900F900FBE0F901F901895AAE2B0E009
:1045A000E4EDF2E20C946B2487EA92E0FC010196C0
:1045B0002091F100208322E08F3A9207B9F70E9400
:1045C0003C1E8091E80083FF38C08091A702909143
:1045D000A8029A3090F5E92FF0E0E159FA4D0C94D9
:1045E0005624803889F0823841F58091AB028F7073
:1045F000873018F58093E9008091EB0085FB8827D0
:1046000080F91092E90006C08091A3029091A40263
:10461000911182609091E800977F9093E8008093D9
:10462000F1001092F1008091E8008E7723C0811193
:1046300016C08091A902813011F18091E80083FFBA
:104640000AC08091E800877F8093E8008091EB00AA
:1046500080628093EB00AA96E3E00C94872482307A
:1046600061F78091A902882389F01092E900809176
:10467000E800877F8093E8000E94E620DECF81E09B
:10468000933009F080E08093A402EFCF8091AB02D9
:104690008F702FEF280F263080F68093E90020914D
:1046A000EB0020FFE2CF933031F48091EB00806289
:1046B0008093EB00DACF9091EB0090619093EB0048
:1046C00021E030E0A90102C0440F551F8A95E2F7AE
:1046D0004093EA001092EA008091EB008860E8CFF6
:1046E0008111ABCF1091A9021F778091E3008078F0
:1046F000812B8093E3008091E800877F8093E8001E
:104700000E94E6208091E80080FFFCCF8091E300CA
:1047100080688093E30083E0111101C082E0809300
:10472000A6028BCF8058823008F087CF8091A902F3
:104730009091AA028C3D53E0950799F583E08A8316
:104740008AE289834FB7F894DE01139620E03EE0B9
:1047500051E2E32FF0E050935700849120FF03C013
:1047600082958F703F5F8F708A30C8F0895C90E0CF
:104770008D939D932F5F243161F74FBF8091E800A7
:10478000877F8093E8006AE270E0CE0101960E9484
:10479000FD1F8091E8008B778093E8004ECF805D0D
:1047A000E6CF6091AB027091AC02AE014F5F5F4FFC
:1047B0000E943C1FBC01892B09F43FCF8091E80087
:1047C000877F8093E80089819A810E945720E1CFFA
:1047D000803809F032CF8091E800877F8093E8002D
:1047E0008091A2028093F1001ECF811126CF90917B
:1047F000A902923008F021CF8091E800877F809352
:10480000E8009093A2020E94E6208091A2028823F1
:1048100031F084E08093A6020E94271E0ECF809183
:10482000E30087FDF6CF81E0F5CF0895CF93809127
:10483000A602882399F08091E900C091EC00C79509
:10484000CC27C7958F70C82B1092E9008091E800A3
:1048500083FD0E94CE22CF70C093E900CF910895CE
:104860000E9436211092A6020895E8EDF0E08081C2
:10487000806180838AE18A95F1F700C08091D90038
:104880008170089597FB072E16F4009407D077FDEA
:1048900009D00E94932407FC05D03EF490958195A1
:1048A0009F4F0895709561957F4F0895EE0FFF1FFC
:1048B0000590F491E02D09942F923F924F925F92D0
:1048C0006F927F928F929F92AF92BF92CF92DF9220
:1048D000EF92FF920F931F93CF93DF93CDB7DEB785
:1048E000CA1BDB0B0FB6F894DEBF0FBECDBF099419
:1048F0002A88398848885F846E847D848C849B8470
:10490000AA84B984C884DF80EE80FD800C811B817D
:10491000AA81B981CE0FD11D0FB6F894DEBF0FBEAC
:10492000CDBFED010895AA1BBB1B51E107C0AA1F13
:10493000BB1FA617B70710F0A61BB70B881F991F40
:104940005A95A9F780959095BC01CD010895FB017A
:10495000DC0104C08D910190801921F44150504038
:10496000C8F7881B990B0895FB01DC0102C0019078
:104970000D9241505040D8F70895F999FECF92BD5D
:1049800081BDF89A992780B50895A8E1B0E042E08A
:1049900050E00C94F124262FF999FECF92BD81BDF1
:1049A000F89A019700B4021639F01FBA20BD0FB66D
:1049B000F894FA9AF99A0FBE08950396272F0E9449
:1049C000CC240E94CB24252F0E94CC24242F0C948D
:1049D000CC240196272F0E94CC240C94CB24DC01FC
:1049E000CB01FC01F999FECF06C0F2BDE1BDF89AFA
:1049F000319600B40D9241505040B8F70895F894A4
:104A0000FFCFBD04BD04ED04ED0475059205180546
:104A100018059705110622062206D614DC14DF14A9
:104A2000E514FA14FA14FA14FA14FA14FA14FA142B
:104A3000FA14E814ED14F114F71408150E151215F4
:104A40003A17AE1742170C171017461714174A17C4
:104A500056172017A71724175A1728175E178617F7
:104A60002C1762178D1732176817701718174E1703
:104A70001C17521736176C177C179617A5170617B1
:104A80003E17B517EC17E317EF17E117D417D41734
:104A9000E117D417D4170B18D4171618D417D41736
:104AA000D417D417D417E117D417D417E117D41794
:104AB000FD17D417D4172C182C182C182C182C18B8
:104AC0002C182C182C182C18D817D417EC17DF1703
:104AD000AF19B5199F19A919BB19C119C719F12225
:104AE00017231D2317231D23702392231D23E8233F
:024AF000F523AC
:104AF2000E0201000000010000000000000006019B
:104B020000000004070000000000002808503C07D5
:104B120014B31DE81DE11DDA1D01E200E900EA00FF
:104B2200B500B600B700CD008301CC008A01920126
:104B320094012102230224022502260227022A02CC
:104B4200B300B4006F0070009F01CB01E200E900E6
:104B5200EA00B500B600B700CD008301CC008A019F
:104B62009201940121022302240225022602270235
:104B72002A02B300B4006F0070009F01CB0194665B
:0C4B820097C63435F4F5F6F731333702EE
:00000001FF
